:1000000000308A00DB2900003330840083130008AD
:10001000031917280630F800F701F70B0D28F80B25
:100020000C287B30F700F70B1328800B0A280034CC
:100030008E30F7003308F8003208F900FA01F808AA
:10004000031D2C287908F800F9010830F702F80898
:10005000031D2C28F70134280310F81B3328F90D51
:10006000F80DF7032C28F8138A110A12692A3F08A1
:100070000319A728C70043080319A728C7070318AF
:1000800048287F30C702031CA7280319A7284C283B
:100090008130C7070318A7284708F700F801F901BE
:1000A000FA014008CB00CB174108CA004208C9003A
:1000B0001830C700C801491C75284608FA07031CF8
:1000C0006728F90A031D6728F80A0319C8174508A5
:1000D000F907031C6E28F80A0319C8174408C10061
:1000E000C1174108F8070318C817C80DF80CF90C18
:1000F000FA0CCB0CCA0CC90C0310C70B5A280130E0
:10010000F7070318A728F81B8C28CB0DFA0DF90D5B
:10011000F80DF7030319A728CB1F9D28FA0A031D22
:100120009D28F90A031D9D28F80A031D9D28F80C37
:10013000F90CFA0CF70A0319A7284008C80044086C
:10014000C806C81FA528F817AB28F813AB28F70175
:10015000F801F901FA010034F701F801F901FA0197
:10016000C701C801C901CA01460845044404430443
:100170000319EA282030CB000310BF0DC00DC10DBC
:10018000C20DC70DC80DC90DCA0D46084A02031D90
:10019000D32845084902031DD32844084802031DFB
:1001A000D32843084702031CE4284308C702440835
:1001B000031C440FC8024508031C450FC90246082A
:1001C000031C460FCA020314F70DF80DF90DFA0DC2
:1001D000CB0BBC2847308400831300340408B700DD
:1001E0003608B90003190D293508C2003408C100CA
:1001F0003308C0003208BF00C601C5012030C4006A
:100200008230C30037207A08B5007908B400780836
:10021000B3007708B200B90BF4283508C2003408DF
:10022000C1003308C0003208BF003F08B63CBF0021
:10023000FA014008C300C0170310C00CC10CC20C67
:10024000FA0CF90CF80CF70CBF0B1C29C31F33294F
:10025000F709F809F909FA09F70A0319F80A03195D
:10026000F90A0319FA0A7A08B5007908B40078087F
:10027000B3007708B200B51F4A29B703B716B20911
:10028000B309B409B509B20A0319B30A0319B40AC8
:100290000319B50A3B30BE009A30BD00CA30BC001D
:1002A000BB010A30B90036080319B70A3508C20085
:1002B0003408C1003308C0003208BF003E08C60041
:1002C0003D08C5003C08C4003B08C300AC20000842
:1002D000B200840A0008B300840A0008B400840A4B
:1002E0000008B500FD308407F708031D8A29360A87
:1002F000390203198A29370803198C290F39390261
:10030000031984290318C029B71BC029371B8C295E
:100310002030BB292030B705B71E9B29B7123608FD
:10032000031DB7037708B7002D300C1E95299900DF
:100330003708F700B70136083902031DAA297708E4
:10034000B7002E300C1EA22999003708F700203084
:10035000B70500303030B71EBB29B7123608031D71
:10036000B7037708B7002D300C1EB4299900370861
:10037000F700B7013030F70777080C1EBD29990048
:100380003E08C2003D08C1003C08C0003B08BF0059
:10039000C601C501C4010A30C300AC207A08BE0002
:1003A0007908BD007808BC007708BB00B90B562956
:1003B0008A110A12AD2A840183131F30830581300C
:1003C00083169900A6309800903083129800831607
:1003D0001F149F141F159F1107309C007930831242
:1003E000A5001F30A600BE30A7007730A8008530DA
:1003F000A9004830AA00AB01AC01FF30B100831660
:100400001F109F141F159F151F1383121F139F1377
:1004100083169F1383121F148316091283129412DA
:10042000B112310883168700831231163108831602
:1004300087008312B11131088316870001308312BF
:1004400094000030831694000108C73908388100F1
:10045000831290010030F800920000308316920061
:1004600007309C00050885001030F700F70B362A8E
:1004700000001C0883120D1383169D0183120810BF
:100480008316081004308312B200FA30B30004203F
:10049000B20B452A08148316081004308312B200E8
:1004A000FA30B3000420B20B502A0030F8001F08C5
:1004B000C73978049F001F151F195C2A1E08A00069
:1004C0001030F700F70B622A0000B3012008B200D9
:1004D00018287A08C2007908C1007808C000770897
:1004E000BF002808C6002708C5002608C400250844
:1004F000C30037207A08A4007908A3007808A20076
:100500007708A1001030F700F70B842A00002408B8
:10051000C2002308C1002208C0002108BF002C0827
:10052000C6002B08C5002A08C4002908C3003720CC
:100530007A08B0007908AF007808AE007708AD00FF
:10054000893084003008B5002F08B4002E08B300AD
:100550002D08B2000230B600EE281030F700F70B7D
:08056000AF2A00003F2A6300EE
:02400E003A3F37
:00000001FF
;PIC16F877A
;CRC=085D  CREATED="01-juin-20 13:34"
